{
  "_format": "hh-sol-artifact-1",
  "contractName": "Enjaz",
  "sourceName": "contracts/Enjaz.sol",
  "abi": [
    {
      "inputs": [],
      "stateMutability": "nonpayable",
      "type": "constructor"
    },
    {
      "inputs": [
        {
          "internalType": "uint256",
          "name": "transactionId",
          "type": "uint256"
        }
      ],
      "name": "confirmTransaction",
      "outputs": [],
      "stateMutability": "nonpayable",
      "type": "function"
    },
    {
      "inputs": [
        {
          "internalType": "uint256",
          "name": "nationalId",
          "type": "uint256"
        },
        {
          "internalType": "string",
          "name": "plateNumber",
          "type": "string"
        },
        {
          "internalType": "string",
          "name": "color",
          "type": "string"
        },
        {
          "internalType": "string",
          "name": "location",
          "type": "string"
        }
      ],
      "name": "createCar",
      "outputs": [],
      "stateMutability": "nonpayable",
      "type": "function"
    },
    {
      "inputs": [
        {
          "internalType": "string",
          "name": "plateNumber",
          "type": "string"
        }
      ],
      "name": "getCarByPlateNumber",
      "outputs": [
        {
          "components": [
            {
              "internalType": "uint256",
              "name": "id",
              "type": "uint256"
            },
            {
              "internalType": "address",
              "name": "owner",
              "type": "address"
            },
            {
              "internalType": "uint256",
              "name": "nationalId",
              "type": "uint256"
            },
            {
              "internalType": "string",
              "name": "plateNumber",
              "type": "string"
            },
            {
              "internalType": "string",
              "name": "color",
              "type": "string"
            },
            {
              "internalType": "string",
              "name": "location",
              "type": "string"
            }
          ],
          "internalType": "struct Enjaz.Cars",
          "name": "",
          "type": "tuple"
        }
      ],
      "stateMutability": "view",
      "type": "function"
    },
    {
      "inputs": [],
      "name": "getCarTransactionRequests",
      "outputs": [
        {
          "components": [
            {
              "internalType": "uint256",
              "name": "id",
              "type": "uint256"
            },
            {
              "internalType": "address",
              "name": "from",
              "type": "address"
            },
            {
              "internalType": "address",
              "name": "to",
              "type": "address"
            },
            {
              "internalType": "uint256",
              "name": "carId",
              "type": "uint256"
            },
            {
              "internalType": "bool",
              "name": "isCompleted",
              "type": "bool"
            }
          ],
          "internalType": "struct Enjaz.Transaction[]",
          "name": "",
          "type": "tuple[]"
        }
      ],
      "stateMutability": "view",
      "type": "function"
    },
    {
      "inputs": [],
      "name": "getMyCars",
      "outputs": [
        {
          "components": [
            {
              "internalType": "uint256",
              "name": "id",
              "type": "uint256"
            },
            {
              "internalType": "address",
              "name": "owner",
              "type": "address"
            },
            {
              "internalType": "uint256",
              "name": "nationalId",
              "type": "uint256"
            },
            {
              "internalType": "string",
              "name": "plateNumber",
              "type": "string"
            },
            {
              "internalType": "string",
              "name": "color",
              "type": "string"
            },
            {
              "internalType": "string",
              "name": "location",
              "type": "string"
            }
          ],
          "internalType": "struct Enjaz.Cars[]",
          "name": "",
          "type": "tuple[]"
        }
      ],
      "stateMutability": "view",
      "type": "function"
    },
    {
      "inputs": [],
      "name": "getRequestsForMyCars",
      "outputs": [
        {
          "components": [
            {
              "internalType": "uint256",
              "name": "id",
              "type": "uint256"
            },
            {
              "internalType": "address",
              "name": "from",
              "type": "address"
            },
            {
              "internalType": "address",
              "name": "to",
              "type": "address"
            },
            {
              "internalType": "uint256",
              "name": "carId",
              "type": "uint256"
            },
            {
              "internalType": "bool",
              "name": "isCompleted",
              "type": "bool"
            }
          ],
          "internalType": "struct Enjaz.Transaction[]",
          "name": "",
          "type": "tuple[]"
        }
      ],
      "stateMutability": "view",
      "type": "function"
    },
    {
      "inputs": [
        {
          "internalType": "uint256",
          "name": "carId",
          "type": "uint256"
        }
      ],
      "name": "requestCarTransfer",
      "outputs": [],
      "stateMutability": "nonpayable",
      "type": "function"
    },
    {
      "inputs": [
        {
          "internalType": "uint256",
          "name": "carId",
          "type": "uint256"
        },
        {
          "internalType": "address",
          "name": "to",
          "type": "address"
        }
      ],
      "name": "transferCar",
      "outputs": [],
      "stateMutability": "nonpayable",
      "type": "function"
    }
  ],
  "bytecode": "0x608060405234801561001057600080fd5b5060006002819055506000600381905550612668806100306000396000f3fe608060405234801561001057600080fd5b50600436106100885760003560e01c80637f0fe4ee1161005b5780637f0fe4ee146101035780639f48198b14610133578063c01a8c841461014f578063edd13f3b1461016b57610088565b806313a5d7641461008d578063341fa05d146100ab578063751155a8146100c957806377fd9237146100e7575b600080fd5b610095610187565b6040516100a2919061188a565b60405180910390f35b6100b3610520565b6040516100c09190611a95565b60405180910390f35b6100d161093a565b6040516100de919061188a565b60405180910390f35b61010160048036038101906100fc9190611c2c565b610c89565b005b61011d60048036038101906101189190611ce7565b610db3565b60405161012a9190611dc7565b60405180910390f35b61014d60048036038101906101489190611e15565b6110e5565b005b61016960048036038101906101649190611e55565b611247565b005b61018560048036038101906101809190611e55565b61146a565b005b60606000805b600180549050811015610290573373ffffffffffffffffffffffffffffffffffffffff166000600183815481106101c7576101c6611e82565b5b906000526020600020906005020160030154815481106101ea576101e9611e82565b5b906000526020600020906006020160010160009054906101000a900473ffffffffffffffffffffffffffffffffffffffff1673ffffffffffffffffffffffffffffffffffffffff1614801561026f57506001818154811061024e5761024d611e82565b5b906000526020600020906005020160040160009054906101000a900460ff16155b1561028357818061027f90611ee0565b9250505b808060010191505061018d565b5060008167ffffffffffffffff8111156102ad576102ac611b01565b5b6040519080825280602002602001820160405280156102e657816020015b6102d3611655565b8152602001906001900390816102cb5790505b5090506000805b600180549050811015610516573373ffffffffffffffffffffffffffffffffffffffff1660006001838154811061032757610326611e82565b5b9060005260206000209060050201600301548154811061034a57610349611e82565b5b906000526020600020906006020160010160009054906101000a900473ffffffffffffffffffffffffffffffffffffffff1673ffffffffffffffffffffffffffffffffffffffff161480156103cf5750600181815481106103ae576103ad611e82565b5b906000526020600020906005020160040160009054906101000a900460ff16155b1561050957600181815481106103e8576103e7611e82565b5b90600052602060002090600502016040518060a0016040529081600082015481526020016001820160009054906101000a900473ffffffffffffffffffffffffffffffffffffffff1673ffffffffffffffffffffffffffffffffffffffff1673ffffffffffffffffffffffffffffffffffffffff1681526020016002820160009054906101000a900473ffffffffffffffffffffffffffffffffffffffff1673ffffffffffffffffffffffffffffffffffffffff1673ffffffffffffffffffffffffffffffffffffffff168152602001600382015481526020016004820160009054906101000a900460ff1615151515815250508383815181106104ef576104ee611e82565b5b6020026020010181905250818061050590611ee0565b9250505b80806001019150506102ed565b5081935050505090565b60606000805b6000805490508110156105c7573373ffffffffffffffffffffffffffffffffffffffff166000828154811061055e5761055d611e82565b5b906000526020600020906006020160010160009054906101000a900473ffffffffffffffffffffffffffffffffffffffff1673ffffffffffffffffffffffffffffffffffffffff16036105ba5781806105b690611ee0565b9250505b8080600101915050610526565b5060008167ffffffffffffffff8111156105e4576105e3611b01565b5b60405190808252806020026020018201604052801561061d57816020015b61060a6116b2565b8152602001906001900390816106025790505b5090506000805b600080549050811015610930573373ffffffffffffffffffffffffffffffffffffffff166000828154811061065c5761065b611e82565b5b906000526020600020906006020160010160009054906101000a900473ffffffffffffffffffffffffffffffffffffffff1673ffffffffffffffffffffffffffffffffffffffff160361092357600081815481106106bd576106bc611e82565b5b90600052602060002090600602016040518060c0016040529081600082015481526020016001820160009054906101000a900473ffffffffffffffffffffffffffffffffffffffff1673ffffffffffffffffffffffffffffffffffffffff1673ffffffffffffffffffffffffffffffffffffffff1681526020016002820154815260200160038201805461075090611f57565b80601f016020809104026020016040519081016040528092919081815260200182805461077c90611f57565b80156107c95780601f1061079e576101008083540402835291602001916107c9565b820191906000526020600020905b8154815290600101906020018083116107ac57829003601f168201915b505050505081526020016004820180546107e290611f57565b80601f016020809104026020016040519081016040528092919081815260200182805461080e90611f57565b801561085b5780601f106108305761010080835404028352916020019161085b565b820191906000526020600020905b81548152906001019060200180831161083e57829003601f168201915b5050505050815260200160058201805461087490611f57565b80601f01602080910402602001604051908101604052809291908181526020018280546108a090611f57565b80156108ed5780601f106108c2576101008083540402835291602001916108ed565b820191906000526020600020905b8154815290600101906020018083116108d057829003601f168201915b50505050508152505083838151811061090957610908611e82565b5b6020026020010181905250818061091f90611ee0565b9250505b8080600101915050610624565b5081935050505090565b60606000805b600180549050811015610a1e573373ffffffffffffffffffffffffffffffffffffffff166001828154811061097857610977611e82565b5b906000526020600020906005020160020160009054906101000a900473ffffffffffffffffffffffffffffffffffffffff1673ffffffffffffffffffffffffffffffffffffffff161480156109fd5750600181815481106109dc576109db611e82565b5b906000526020600020906005020160040160009054906101000a900460ff16155b15610a11578180610a0d90611ee0565b9250505b8080600101915050610940565b5060008167ffffffffffffffff811115610a3b57610a3a611b01565b5b604051908082528060200260200182016040528015610a7457816020015b610a61611655565b815260200190600190039081610a595790505b5090506000805b600180549050811015610c7f573373ffffffffffffffffffffffffffffffffffffffff1660018281548110610ab357610ab2611e82565b5b906000526020600020906005020160020160009054906101000a900473ffffffffffffffffffffffffffffffffffffffff1673ffffffffffffffffffffffffffffffffffffffff16148015610b38575060018181548110610b1757610b16611e82565b5b906000526020600020906005020160040160009054906101000a900460ff16155b15610c725760018181548110610b5157610b50611e82565b5b90600052602060002090600502016040518060a0016040529081600082015481526020016001820160009054906101000a900473ffffffffffffffffffffffffffffffffffffffff1673ffffffffffffffffffffffffffffffffffffffff1673ffffffffffffffffffffffffffffffffffffffff1681526020016002820160009054906101000a900473ffffffffffffffffffffffffffffffffffffffff1673ffffffffffffffffffffffffffffffffffffffff1673ffffffffffffffffffffffffffffffffffffffff168152602001600382015481526020016004820160009054906101000a900460ff161515151581525050838381518110610c5857610c57611e82565b5b60200260200101819052508180610c6e90611ee0565b9250505b8080600101915050610a7b565b5081935050505090565b60006040518060c0016040528060025481526020013373ffffffffffffffffffffffffffffffffffffffff1681526020018681526020018581526020018481526020018381525090806001815401808255809150506001900390600052602060002090600602016000909190919091506000820151816000015560208201518160010160006101000a81548173ffffffffffffffffffffffffffffffffffffffff021916908373ffffffffffffffffffffffffffffffffffffffff160217905550604082015181600201556060820151816003019081610d699190612134565b506080820151816004019081610d7f9190612134565b5060a0820151816005019081610d959190612134565b5050506001600254610da79190612206565b60028190555050505050565b610dbb6116b2565b60005b6000805490508110156110a45782604051602001610ddc9190612276565b6040516020818303038152906040528051906020012060008281548110610e0657610e05611e82565b5b9060005260206000209060060201600301604051602001610e279190612310565b60405160208183030381529060405280519060200120036110975760008181548110610e5657610e55611e82565b5b90600052602060002090600602016040518060c0016040529081600082015481526020016001820160009054906101000a900473ffffffffffffffffffffffffffffffffffffffff1673ffffffffffffffffffffffffffffffffffffffff1673ffffffffffffffffffffffffffffffffffffffff16815260200160028201548152602001600382018054610ee990611f57565b80601f0160208091040260200160405190810160405280929190818152602001828054610f1590611f57565b8015610f625780601f10610f3757610100808354040283529160200191610f62565b820191906000526020600020905b815481529060010190602001808311610f4557829003601f168201915b50505050508152602001600482018054610f7b90611f57565b80601f0160208091040260200160405190810160405280929190818152602001828054610fa790611f57565b8015610ff45780601f10610fc957610100808354040283529160200191610ff4565b820191906000526020600020905b815481529060010190602001808311610fd757829003601f168201915b5050505050815260200160058201805461100d90611f57565b80601f016020809104026020016040519081016040528092919081815260200182805461103990611f57565b80156110865780601f1061105b57610100808354040283529160200191611086565b820191906000526020600020905b81548152906001019060200180831161106957829003601f168201915b5050505050815250509150506110e0565b8080600101915050610dbe565b506040517f08c379a00000000000000000000000000000000000000000000000000000000081526004016110d7906123aa565b60405180910390fd5b919050565b600080549050821061112c576040517f08c379a000000000000000000000000000000000000000000000000000000000815260040161112390612416565b60405180910390fd5b3373ffffffffffffffffffffffffffffffffffffffff166000838154811061115757611156611e82565b5b906000526020600020906006020160010160009054906101000a900473ffffffffffffffffffffffffffffffffffffffff1673ffffffffffffffffffffffffffffffffffffffff16146111df576040517f08c379a00000000000000000000000000000000000000000000000000000000081526004016111d6906124a8565b60405180910390fd5b80600083815481106111f4576111f3611e82565b5b906000526020600020906006020160010160006101000a81548173ffffffffffffffffffffffffffffffffffffffff021916908373ffffffffffffffffffffffffffffffffffffffff1602179055505050565b600180549050811061128e576040517f08c379a000000000000000000000000000000000000000000000000000000000815260040161128590612514565b60405180910390fd5b6000600182815481106112a4576112a3611e82565b5b906000526020600020906005020190503373ffffffffffffffffffffffffffffffffffffffff1660008260030154815481106112e3576112e2611e82565b5b906000526020600020906006020160010160009054906101000a900473ffffffffffffffffffffffffffffffffffffffff1673ffffffffffffffffffffffffffffffffffffffff161461136b576040517f08c379a0000000000000000000000000000000000000000000000000000000008152600401611362906125a6565b60405180910390fd5b8060040160009054906101000a900460ff16156113bd576040517f08c379a00000000000000000000000000000000000000000000000000000000081526004016113b490612612565b60405180910390fd5b8060020160009054906101000a900473ffffffffffffffffffffffffffffffffffffffff1660008260030154815481106113fa576113f9611e82565b5b906000526020600020906006020160010160006101000a81548173ffffffffffffffffffffffffffffffffffffffff021916908373ffffffffffffffffffffffffffffffffffffffff16021790555060018160040160006101000a81548160ff0219169083151502179055505050565b60008054905081106114b1576040517f08c379a00000000000000000000000000000000000000000000000000000000081526004016114a890612416565b60405180910390fd5b60016040518060a001604052806003548152602001600084815481106114da576114d9611e82565b5b906000526020600020906006020160010160009054906101000a900473ffffffffffffffffffffffffffffffffffffffff1673ffffffffffffffffffffffffffffffffffffffff1681526020013373ffffffffffffffffffffffffffffffffffffffff1681526020018381526020016000151581525090806001815401808255809150506001900390600052602060002090600502016000909190919091506000820151816000015560208201518160010160006101000a81548173ffffffffffffffffffffffffffffffffffffffff021916908373ffffffffffffffffffffffffffffffffffffffff16021790555060408201518160020160006101000a81548173ffffffffffffffffffffffffffffffffffffffff021916908373ffffffffffffffffffffffffffffffffffffffff1602179055506060820151816003015560808201518160040160006101000a81548160ff0219169083151502179055505050600160035461164c9190612206565b60038190555050565b6040518060a0016040528060008152602001600073ffffffffffffffffffffffffffffffffffffffff168152602001600073ffffffffffffffffffffffffffffffffffffffff168152602001600081526020016000151581525090565b6040518060c0016040528060008152602001600073ffffffffffffffffffffffffffffffffffffffff168152602001600081526020016060815260200160608152602001606081525090565b600081519050919050565b600082825260208201905092915050565b6000819050602082019050919050565b6000819050919050565b61173d8161172a565b82525050565b600073ffffffffffffffffffffffffffffffffffffffff82169050919050565b600061176e82611743565b9050919050565b61177e81611763565b82525050565b60008115159050919050565b61179981611784565b82525050565b60a0820160008201516117b56000850182611734565b5060208201516117c86020850182611775565b5060408201516117db6040850182611775565b5060608201516117ee6060850182611734565b5060808201516118016080850182611790565b50505050565b6000611813838361179f565b60a08301905092915050565b6000602082019050919050565b6000611837826116fe565b6118418185611709565b935061184c8361171a565b8060005b8381101561187d5781516118648882611807565b975061186f8361181f565b925050600181019050611850565b5085935050505092915050565b600060208201905081810360008301526118a4818461182c565b905092915050565b600081519050919050565b600082825260208201905092915050565b6000819050602082019050919050565b600081519050919050565b600082825260208201905092915050565b60005b838110156119125780820151818401526020810190506118f7565b60008484015250505050565b6000601f19601f8301169050919050565b600061193a826118d8565b61194481856118e3565b93506119548185602086016118f4565b61195d8161191e565b840191505092915050565b600060c0830160008301516119806000860182611734565b5060208301516119936020860182611775565b5060408301516119a66040860182611734565b50606083015184820360608601526119be828261192f565b915050608083015184820360808601526119d8828261192f565b91505060a083015184820360a08601526119f2828261192f565b9150508091505092915050565b6000611a0b8383611968565b905092915050565b6000602082019050919050565b6000611a2b826118ac565b611a3581856118b7565b935083602082028501611a47856118c8565b8060005b85811015611a835784840389528151611a6485826119ff565b9450611a6f83611a13565b925060208a01995050600181019050611a4b565b50829750879550505050505092915050565b60006020820190508181036000830152611aaf8184611a20565b905092915050565b6000604051905090565b600080fd5b600080fd5b611ad48161172a565b8114611adf57600080fd5b50565b600081359050611af181611acb565b92915050565b600080fd5b600080fd5b7f4e487b7100000000000000000000000000000000000000000000000000000000600052604160045260246000fd5b611b398261191e565b810181811067ffffffffffffffff82111715611b5857611b57611b01565b5b80604052505050565b6000611b6b611ab7565b9050611b778282611b30565b919050565b600067ffffffffffffffff821115611b9757611b96611b01565b5b611ba08261191e565b9050602081019050919050565b82818337600083830152505050565b6000611bcf611bca84611b7c565b611b61565b905082815260208101848484011115611beb57611bea611afc565b5b611bf6848285611bad565b509392505050565b600082601f830112611c1357611c12611af7565b5b8135611c23848260208601611bbc565b91505092915050565b60008060008060808587031215611c4657611c45611ac1565b5b6000611c5487828801611ae2565b945050602085013567ffffffffffffffff811115611c7557611c74611ac6565b5b611c8187828801611bfe565b935050604085013567ffffffffffffffff811115611ca257611ca1611ac6565b5b611cae87828801611bfe565b925050606085013567ffffffffffffffff811115611ccf57611cce611ac6565b5b611cdb87828801611bfe565b91505092959194509250565b600060208284031215611cfd57611cfc611ac1565b5b600082013567ffffffffffffffff811115611d1b57611d1a611ac6565b5b611d2784828501611bfe565b91505092915050565b600060c083016000830151611d486000860182611734565b506020830151611d5b6020860182611775565b506040830151611d6e6040860182611734565b5060608301518482036060860152611d86828261192f565b91505060808301518482036080860152611da0828261192f565b91505060a083015184820360a0860152611dba828261192f565b9150508091505092915050565b60006020820190508181036000830152611de18184611d30565b905092915050565b611df281611763565b8114611dfd57600080fd5b50565b600081359050611e0f81611de9565b92915050565b60008060408385031215611e2c57611e2b611ac1565b5b6000611e3a85828601611ae2565b9250506020611e4b85828601611e00565b9150509250929050565b600060208284031215611e6b57611e6a611ac1565b5b6000611e7984828501611ae2565b91505092915050565b7f4e487b7100000000000000000000000000000000000000000000000000000000600052603260045260246000fd5b7f4e487b7100000000000000000000000000000000000000000000000000000000600052601160045260246000fd5b6000611eeb8261172a565b91507fffffffffffffffffffffffffffffffffffffffffffffffffffffffffffffffff8203611f1d57611f1c611eb1565b5b600182019050919050565b7f4e487b7100000000000000000000000000000000000000000000000000000000600052602260045260246000fd5b60006002820490506001821680611f6f57607f821691505b602082108103611f8257611f81611f28565b5b50919050565b60008190508160005260206000209050919050565b60006020601f8301049050919050565b600082821b905092915050565b600060088302611fea7fffffffffffffffffffffffffffffffffffffffffffffffffffffffffffffffff82611fad565b611ff48683611fad565b95508019841693508086168417925050509392505050565b6000819050919050565b600061203161202c6120278461172a565b61200c565b61172a565b9050919050565b6000819050919050565b61204b83612016565b61205f61205782612038565b848454611fba565b825550505050565b600090565b612074612067565b61207f818484612042565b505050565b5b818110156120a35761209860008261206c565b600181019050612085565b5050565b601f8211156120e8576120b981611f88565b6120c284611f9d565b810160208510156120d1578190505b6120e56120dd85611f9d565b830182612084565b50505b505050565b600082821c905092915050565b600061210b600019846008026120ed565b1980831691505092915050565b600061212483836120fa565b9150826002028217905092915050565b61213d826118d8565b67ffffffffffffffff81111561215657612155611b01565b5b6121608254611f57565b61216b8282856120a7565b600060209050601f83116001811461219e576000841561218c578287015190505b6121968582612118565b8655506121fe565b601f1984166121ac86611f88565b60005b828110156121d4578489015182556001820191506020850194506020810190506121af565b868310156121f157848901516121ed601f8916826120fa565b8355505b6001600288020188555050505b505050505050565b60006122118261172a565b915061221c8361172a565b925082820190508082111561223457612233611eb1565b5b92915050565b600081905092915050565b6000612250826118d8565b61225a818561223a565b935061226a8185602086016118f4565b80840191505092915050565b60006122828284612245565b915081905092915050565b6000815461229a81611f57565b6122a4818661223a565b945060018216600081146122bf57600181146122d457612307565b60ff1983168652811515820286019350612307565b6122dd85611f88565b60005b838110156122ff578154818901526001820191506020810190506122e0565b838801955050505b50505092915050565b600061231c828461228d565b915081905092915050565b600082825260208201905092915050565b7f43617220776974682074686520676976656e20706c617465206e756d6265722060008201527f6e6f7420666f756e640000000000000000000000000000000000000000000000602082015250565b6000612394602983612327565b915061239f82612338565b604082019050919050565b600060208201905081810360008301526123c381612387565b9050919050565b7f496e76616c696420636172206964000000000000000000000000000000000000600082015250565b6000612400600e83612327565b915061240b826123ca565b602082019050919050565b6000602082019050818103600083015261242f816123f3565b9050919050565b7f596f757220617265206e6f7420746865206f776e6572206f662074686973206360008201527f6172000000000000000000000000000000000000000000000000000000000000602082015250565b6000612492602283612327565b915061249d82612436565b604082019050919050565b600060208201905081810360008301526124c181612485565b9050919050565b7f496e76616c6964207472616e73616374696f6e20696400000000000000000000600082015250565b60006124fe601683612327565b9150612509826124c8565b602082019050919050565b6000602082019050818103600083015261252d816124f1565b9050919050565b7f596f7520617265206e6f7420746865206f776e6572206f66207468697320636160008201527f7200000000000000000000000000000000000000000000000000000000000000602082015250565b6000612590602183612327565b915061259b82612534565b604082019050919050565b600060208201905081810360008301526125bf81612583565b9050919050565b7f5472616e73616374696f6e20697320616c726561647920636f6d706c65746564600082015250565b60006125fc602083612327565b9150612607826125c6565b602082019050919050565b6000602082019050818103600083015261262b816125ef565b905091905056fea26469706673582212209cf9ef979249976476209d416c4b9e8839283be28056f98bf42f2271c2999c1164736f6c63430008180033",
  "linkReferences": {},
  "deployedLinkReferences": {}
}